{
  "_format": "hh-sol-artifact-1",
  "contractName": "ArbitrationCentre",
  "sourceName": "contracts/ArbitrationCentre.sol",
  "abi": [
    {
      "inputs": [],
      "stateMutability": "nonpayable",
      "type": "constructor"
    },
    {
      "anonymous": false,
      "inputs": [
        {
          "indexed": true,
          "internalType": "address",
          "name": "arbitrationCentre",
          "type": "address"
        },
        {
          "indexed": true,
          "internalType": "uint256",
          "name": "ArbitrationCentreId",
          "type": "uint256"
        },
        {
          "indexed": false,
          "internalType": "string",
          "name": "caseDetail",
          "type": "string"
        }
      ],
      "name": "ArbitrationCentreCasesEvent",
      "type": "event"
    },
    {
      "inputs": [
        {
          "internalType": "address",
          "name": "",
          "type": "address"
        }
      ],
      "name": "ArbitrationCentreCases",
      "outputs": [
        {
          "internalType": "address",
          "name": "arbitrationCentre",
          "type": "address"
        },
        {
          "internalType": "uint256",
          "name": "arbitrationCentreId",
          "type": "uint256"
        },
        {
          "internalType": "string",
          "name": "caseDetail",
          "type": "string"
        }
      ],
      "stateMutability": "view",
      "type": "function"
    },
    {
      "inputs": [],
      "name": "_idUser",
      "outputs": [
        {
          "internalType": "uint256",
          "name": "",
          "type": "uint256"
        }
      ],
      "stateMutability": "view",
      "type": "function"
    },
    {
      "inputs": [
        {
          "internalType": "string",
          "name": "_message",
          "type": "string"
        }
      ],
      "name": "addCase",
      "outputs": [],
      "stateMutability": "nonpayable",
      "type": "function"
    },
    {
      "inputs": [
        {
          "internalType": "uint256",
          "name": "",
          "type": "uint256"
        }
      ],
      "name": "arbitrationCentres",
      "outputs": [
        {
          "internalType": "address",
          "name": "",
          "type": "address"
        }
      ],
      "stateMutability": "view",
      "type": "function"
    },
    {
      "inputs": [
        {
          "internalType": "uint256",
          "name": "",
          "type": "uint256"
        }
      ],
      "name": "caseDetail",
      "outputs": [
        {
          "internalType": "string",
          "name": "",
          "type": "string"
        }
      ],
      "stateMutability": "view",
      "type": "function"
    },
    {
      "inputs": [
        {
          "internalType": "uint256",
          "name": "",
          "type": "uint256"
        }
      ],
      "name": "caseDetailId",
      "outputs": [
        {
          "internalType": "uint256",
          "name": "",
          "type": "uint256"
        }
      ],
      "stateMutability": "view",
      "type": "function"
    },
    {
      "inputs": [],
      "name": "getAddress",
      "outputs": [
        {
          "internalType": "address[]",
          "name": "",
          "type": "address[]"
        }
      ],
      "stateMutability": "view",
      "type": "function"
    },
    {
      "inputs": [
        {
          "internalType": "address",
          "name": "_address",
          "type": "address"
        }
      ],
      "name": "getArbitrationCentreData",
      "outputs": [
        {
          "internalType": "address",
          "name": "",
          "type": "address"
        },
        {
          "internalType": "uint256",
          "name": "",
          "type": "uint256"
        },
        {
          "internalType": "string",
          "name": "",
          "type": "string"
        }
      ],
      "stateMutability": "view",
      "type": "function"
    },
    {
      "inputs": [],
      "name": "getCaseData",
      "outputs": [
        {
          "internalType": "string[]",
          "name": "",
          "type": "string[]"
        }
      ],
      "stateMutability": "view",
      "type": "function"
    },
    {
      "inputs": [],
      "name": "ownerOfContract",
      "outputs": [
        {
          "internalType": "address",
          "name": "",
          "type": "address"
        }
      ],
      "stateMutability": "view",
      "type": "function"
    }
  ],
  "bytecode": "0x608060405234801561001057600080fd5b5033600160006101000a81548173ffffffffffffffffffffffffffffffffffffffff021916908373ffffffffffffffffffffffffffffffffffffffff160217905550611007806100616000396000f3fe608060405234801561001057600080fd5b506004361061009e5760003560e01c80635eaea3b2116100665780635eaea3b21461016f5780636b53876a1461018d57806394432cc5146101a9578063be73ced9146101c7578063c97368d4146101f95761009e565b80630192797e146100a357806338cc4831146100d357806339e61bd1146100f1578063453b804c14610121578063468229ae14610151575b600080fd5b6100bd60048036038101906100b891906109d3565b61022b565b6040516100ca9190610a0f565b60405180910390f35b6100db61024f565b6040516100e89190610b1a565b60405180910390f35b61010b600480360381019061010691906109d3565b6102dd565b6040516101189190610bd5565b60405180910390f35b61013b600480360381019061013691906109d3565b610389565b6040516101489190610c06565b60405180910390f35b6101596103c8565b6040516101669190610c06565b60405180910390f35b6101776103ee565b6040516101849190610d2d565b60405180910390f35b6101a760048036038101906101a29190610db4565b6104c7565b005b6101b161069d565b6040516101be9190610a0f565b60405180910390f35b6101e160048036038101906101dc9190610e2d565b6106a3565b6040516101f093929190610e5a565b60405180910390f35b610213600480360381019061020e9190610e2d565b610775565b60405161022293929190610e5a565b60405180910390f35b6004818154811061023b57600080fd5b906000526020600020016000915090505481565b606060028054806020026020016040519081016040528092919081815260200182805480156102d357602002820191906000526020600020905b8160009054906101000a900473ffffffffffffffffffffffffffffffffffffffff1673ffffffffffffffffffffffffffffffffffffffff1681526020019060010190808311610289575b5050505050905090565b600381815481106102ed57600080fd5b90600052602060002001600091509050805461030890610ec7565b80601f016020809104026020016040519081016040528092919081815260200182805461033490610ec7565b80156103815780601f1061035657610100808354040283529160200191610381565b820191906000526020600020905b81548152906001019060200180831161036457829003601f168201915b505050505081565b6002818154811061039957600080fd5b906000526020600020016000915054906101000a900473ffffffffffffffffffffffffffffffffffffffff1681565b600160009054906101000a900473ffffffffffffffffffffffffffffffffffffffff1681565b60606003805480602002602001604051908101604052809291908181526020016000905b828210156104be57838290600052602060002001805461043190610ec7565b80601f016020809104026020016040519081016040528092919081815260200182805461045d90610ec7565b80156104aa5780601f1061047f576101008083540402835291602001916104aa565b820191906000526020600020905b81548152906001019060200180831161048d57829003601f168201915b505050505081526020019060010190610412565b50505050905090565b6104cf6108d7565b6000805490506000600560003373ffffffffffffffffffffffffffffffffffffffff1673ffffffffffffffffffffffffffffffffffffffff1681526020019081526020016000209050338160000160006101000a81548173ffffffffffffffffffffffffffffffffffffffff021916908373ffffffffffffffffffffffffffffffffffffffff160217905550838382600201919061056e9291906108f0565b508181600101819055506002339080600181540180825580915050600190039060005260206000200160009091909190916101000a81548173ffffffffffffffffffffffffffffffffffffffff021916908373ffffffffffffffffffffffffffffffffffffffff16021790555060038484909180600181540180825580915050600190039060005260206000200160009091929091929091929091925091906106189291906108f0565b50600482908060018154018082558091505060019003906000526020600020016000909190919091505580600101543373ffffffffffffffffffffffffffffffffffffffff167f91702f7055ccc023e52c39d9801bbf350077b96d95f2833ce7e5074a31b7fd1f868660405161068f929190610f35565b60405180910390a350505050565b60005481565b60056020528060005260406000206000915090508060000160009054906101000a900473ffffffffffffffffffffffffffffffffffffffff16908060010154908060020180546106f290610ec7565b80601f016020809104026020016040519081016040528092919081815260200182805461071e90610ec7565b801561076b5780601f106107405761010080835404028352916020019161076b565b820191906000526020600020905b81548152906001019060200180831161074e57829003601f168201915b5050505050905083565b60008060606000600560008673ffffffffffffffffffffffffffffffffffffffff1673ffffffffffffffffffffffffffffffffffffffff1681526020019081526020016000206040518060600160405290816000820160009054906101000a900473ffffffffffffffffffffffffffffffffffffffff1673ffffffffffffffffffffffffffffffffffffffff1673ffffffffffffffffffffffffffffffffffffffff1681526020016001820154815260200160028201805461083690610ec7565b80601f016020809104026020016040519081016040528092919081815260200182805461086290610ec7565b80156108af5780601f10610884576101008083540402835291602001916108af565b820191906000526020600020905b81548152906001019060200180831161089257829003601f168201915b5050505050815250509050806000015181602001518260400151935093509350509193909250565b6000808154809291906108e990610f88565b9190505550565b8280546108fc90610ec7565b90600052602060002090601f01602090048101928261091e5760008555610965565b82601f1061093757803560ff1916838001178555610965565b82800160010185558215610965579182015b82811115610964578235825591602001919060010190610949565b5b5090506109729190610976565b5090565b5b8082111561098f576000816000905550600101610977565b5090565b600080fd5b600080fd5b6000819050919050565b6109b08161099d565b81146109bb57600080fd5b50565b6000813590506109cd816109a7565b92915050565b6000602082840312156109e9576109e8610993565b5b60006109f7848285016109be565b91505092915050565b610a098161099d565b82525050565b6000602082019050610a246000830184610a00565b92915050565b600081519050919050565b600082825260208201905092915050565b6000819050602082019050919050565b600073ffffffffffffffffffffffffffffffffffffffff82169050919050565b6000610a8182610a56565b9050919050565b610a9181610a76565b82525050565b6000610aa38383610a88565b60208301905092915050565b6000602082019050919050565b6000610ac782610a2a565b610ad18185610a35565b9350610adc83610a46565b8060005b83811015610b0d578151610af48882610a97565b9750610aff83610aaf565b925050600181019050610ae0565b5085935050505092915050565b60006020820190508181036000830152610b348184610abc565b905092915050565b600081519050919050565b600082825260208201905092915050565b60005b83811015610b76578082015181840152602081019050610b5b565b83811115610b85576000848401525b50505050565b6000601f19601f8301169050919050565b6000610ba782610b3c565b610bb18185610b47565b9350610bc1818560208601610b58565b610bca81610b8b565b840191505092915050565b60006020820190508181036000830152610bef8184610b9c565b905092915050565b610c0081610a76565b82525050565b6000602082019050610c1b6000830184610bf7565b92915050565b600081519050919050565b600082825260208201905092915050565b6000819050602082019050919050565b600082825260208201905092915050565b6000610c6982610b3c565b610c738185610c4d565b9350610c83818560208601610b58565b610c8c81610b8b565b840191505092915050565b6000610ca38383610c5e565b905092915050565b6000602082019050919050565b6000610cc382610c21565b610ccd8185610c2c565b935083602082028501610cdf85610c3d565b8060005b85811015610d1b5784840389528151610cfc8582610c97565b9450610d0783610cab565b925060208a01995050600181019050610ce3565b50829750879550505050505092915050565b60006020820190508181036000830152610d478184610cb8565b905092915050565b600080fd5b600080fd5b600080fd5b60008083601f840112610d7457610d73610d4f565b5b8235905067ffffffffffffffff811115610d9157610d90610d54565b5b602083019150836001820283011115610dad57610dac610d59565b5b9250929050565b60008060208385031215610dcb57610dca610993565b5b600083013567ffffffffffffffff811115610de957610de8610998565b5b610df585828601610d5e565b92509250509250929050565b610e0a81610a76565b8114610e1557600080fd5b50565b600081359050610e2781610e01565b92915050565b600060208284031215610e4357610e42610993565b5b6000610e5184828501610e18565b91505092915050565b6000606082019050610e6f6000830186610bf7565b610e7c6020830185610a00565b8181036040830152610e8e8184610b9c565b9050949350505050565b7f4e487b7100000000000000000000000000000000000000000000000000000000600052602260045260246000fd5b60006002820490506001821680610edf57607f821691505b60208210811415610ef357610ef2610e98565b5b50919050565b82818337600083830152505050565b6000610f148385610b47565b9350610f21838584610ef9565b610f2a83610b8b565b840190509392505050565b60006020820190508181036000830152610f50818486610f08565b90509392505050565b7f4e487b7100000000000000000000000000000000000000000000000000000000600052601160045260246000fd5b6000610f938261099d565b91507fffffffffffffffffffffffffffffffffffffffffffffffffffffffffffffffff821415610fc657610fc5610f59565b5b60018201905091905056fea264697066735822122066ffb627c06458720ac34c007281e5bb4138de5fe579b6e8a71ea80343bed66564736f6c63430008090033",
  "linkReferences": {},
  "deployedLinkReferences": {}
}